:100000000C94A2040C94BF040C94BF040C94BF0481
:100010000C94BF040C94BF040C94BF040C944C0EBD
:100020000C94BF040C94BF040C94BF040C94BF0444
:100030000C94BF040C94BF040C94BF040C94BF0434
:100040000C9422050C94BF040C94BF040C94BF04C0
:100050000C94BF040C94BF040C94BF040C94BF0414
:100060000C94BF040C94BF04CD14D3140F15D914F1
:10007000DF14E514EB14F114F714FD14031509153E
:10008000084AD73B3BCE016E84BCBFFDC12F3D6CFF
:1000900074319ABD56833DDA3D00C77F11BED9E465
:1000A000BB4C3E916BAAAABE000000803F0000003E
:1000B0000000010100010101010100000101010135
:1000C0000101010101010000000101010101010123
:1000D0000101010101010101010101010101DC0036
:1000E000DC00DC00DC00DC00DC00DC00DC00DC0030
:1000F000DC00DC00DC00DC00DC00DC00DC00DC0020
:10010000DC00DC00DC00DC00DC00DC00DC00DC000F
:10011000DC00DC00DC00DC00DC00DC00DC00DC00FF
:10012000DC00DC00DC00DC00DC00DC00DC00DC00EF
:10013000DC00DC00DC00DC00DC00DC00DC00DC00DF
:10014000DC00DC00DC00DC00DC00DC00DC00DC00CF
:10015000DC00DC00DC00DC00DC00DC00DC00DC00BF
:10016000DC00DC00DC00DC00DC00DC00DC00DC00AF
:10017000DC00DC00DC00DC00DC00DC00DC00DC009F
:10018000DC00DC00DC00DC00DC00DC00DC00DC008F
:10019000DC00DC00DC00DC00DC00DC00DC00DC007F
:1001A000DC00DC00DC00DC00DC00DC00DC00DC006F
:1001B000DC00DC00DC005D015D015D01D201D201EB
:1001C000D201930293029302930293029302DC0002
:1001D000DC00DC00DC00DC00DC00DC00DC00DC003F
:1001E000DC00DC00DC00DC00DC00DC00DC00DC002F
:1001F000DC00DC00DC00DC00DC00DC00DC000000FB
:1002000000001C00000000000C00000000F00000D6
:1002100000000007000000078E0000000000010041
:1002200000001C70000000000001000018700000B9
:100230000000000003000010E06000000000000C5F
:10024000000033C1F800000000000100006703E077
:1002500000000000000E0000DE1F00000000000093
:10026000050001BBF800000000000001000163C0B0
:100270000000000000000D0003C6000000000000A8
:1002800000030007A80000000000000005000E6049
:10029000000000000000000B000EC0000000000085
:1002A00000000A001C00380003FFFBFFFF89003C30
:1002B00001FC003FFFFFFFFF8E003E07FC01FFFF38
:1002C000E7FFFE08007E0FFE07FFFF8FFFF80E001E
:1002D0007E3FFE0FE0001F80000500FEFFFE3F8016
:1002E000003FFFF80400FBFCFE3E00003FFFF00F64
:1002F00000EFF0FE7E00007FFFC003019FC0FEFC08
:100300000000FFFF0003007F00FFFE0001F8000077
:100310000501FEFFFFFFFFFFFFFFC00407FBFFFF1C
:10032000FFFFF3FFFF800C1FEFFFFF3FFFE7FFFE24
:10033000000D1F8FFFFF0FFF8FFFF8000F01FF80E1
:10034000000000000000000601FFE0000000780E41
:1003500004380301FFF8000000FC3F0E780F01FF96
:10036000FF000003FCFF9FF00D00FFFFFFF007FD03
:10037000FFBFC00C007FFFFFFE0E3F87BF000A00DB
:100380003FFFFFFF1FF7073F000A001FFFFFC03FAF
:10039000FE0EFF00090007FFFF807BFE1FFE000D21
:1003A0000001FFFE0071DF7FDE000300007FFF80A1
:1003B000FF9FF71C0007000003FFE1FF1FE6080096
:1003C000020000007FC1FC0F8000000C0000000054
:1003D0000000000000000D00000000000000000010
:1003E000000D7FFFFFFFFFFFFFFFFFFFE440000066
:1003F0000000000000000024400000000000000099
:1004000000002E7FFFFFFFFFFFFFFFFFFFE30FFF57
:10041000C030003040380840440880920480AA046C
:10042000804A04801404802804801004802804403A
:1004300028084010083000300E1FC0012000009036
:10044000000070000000000000000000000000003C
:10045000000000000000000000000000000000009C
:10046000000000000000000000000000000000008C
:10047000000000000000000000000000000000007C
:10048000000000000000000000000000000000006C
:10049000000000000000000000000000000000005C
:1004A000000000000000000000000000000000004C
:1004B000000000000000000000000000000000003C
:1004C000000000000000000000000000000000002C
:1004D000000000000000000000000000000000001C
:1004E00000000000000000000000005F00000007A6
:1004F000000700147F147F14242A6B2A1223130888
:10050000646236495620500000070000001C22415A
:10051000000041221C000A040E040A08083E0808D4
:100520000040300000080808080800606000004033
:10053000300806013E5149453E00427F4000724965
:100540004949462141494D331814127F102745452A
:1005500045393E494949324121110907364949493E
:1005600036264949493E000014000000403400008E
:100570000814224100141414141400412214080217
:10058000015909063E415D49267C1211127C7F49C2
:100590004949363E414141227F4141413E7F4949DF
:1005A00049417F090901033E414151737F08080811
:1005B0007F00417F41002040413F017F08142241DC
:1005C0007F404040607F021C027F7F0408107F3E16
:1005D0004141413E7F090909063E4151215E7F09A3
:1005E000192946264949493203017F01033F40400A
:1005F000403F1F2040201F3F4038403F63140814F5
:100600006303047804036351494563007F4141005B
:1006100001060830400041417F000402010204400D
:1006200040404040000102040020545478407F289C
:100630004444383844444428384444287F38545487
:10064000541800087E090218A4A49C787F080404AA
:100650007800447D40002040403D007F1028440049
:1006600000417F40007C047804787C0804047838DA
:1006700044444438FC1824241818242418FC7C080A
:10068000040408485454542404043F44243C404087
:10069000207C1C2040201C3C4030403C442810283A
:1006A000444C9090907C4464544C44000836410083
:1006B0000000770000004136080008040810083CDC
:1006C0002623263C7F110948307C040504000040A5
:1006D00030000000780A09004030004030400040FF
:1006E000004000027F020000227F22003E5555415B
:1006F0002213086402607C027F4830000814000066
:100700007F087F48307E181924427F110908707FC6
:1007100040C0407F7F128A70000000060100000484
:1007200003000006010006010403000403000C0C92
:100730000000000808080008080808080000000079
:1007400000781127117870087C50200000140800F0
:100750007C107C50207C101229447F120A70007C8F
:1007600040C0407C000000000023443904032449B9
:1007700032090420413F01005D2222225D7E0202F7
:1007800002010000770000004A5529007C555445BD
:10079000003E7F63773E3E49494122081400081419
:1007A000080808081800000000003E5F4B553E0096
:1007B000457C450000040A040044445F4444004171
:1007C0007F410000447D40007C040402007C101046
:1007D0003C40060F7F017F0000080000385554554B
:1007E000187C10207C013854544428140800140844
:1007F00020403D00006649494933085454542000C4
:10080000457C41007C1211127C7F494949307F4967
:100810004949367F01010101C07E417FC07F4949BE
:10082000494177087F087700494949367F10080415
:100830007F7F1009047F7F081422417C0201017F21
:100840007F020C027F7F0808087F3E4141413E7FC6
:100850000101017F7F090909063E41414122010151
:100860007F0101074848483F0E117F110E631408AD
:1008700014637F40407FC0070808087F7F407F40A7
:100880007F7F407F40FF017F4848307F4830007FB6
:100890007F48484830224149493E7F083E413E4614
:1008A0002919097F20545454787C545454207C5482
:1008B0005454287C04040400C078447CC038545448
:1008C00054186C107C106C00545454287C20100870
:1008D0007C7C2012087C7C10102844700804047C66
:1008E0007C0810087C7C1010107C38444444387C10
:1008F0000404047C7C14141408384444442804047C
:100900007C04040C5050503C3844FC4438442810BB
:1009100028447C40407CC00C1010107C7C407C4003
:100920007C7C407C40FC047C5050207C5020007C2F
:100930007C5050200028445454387C1038443848A7
:100940003414147C11241FBECFEFD8E0DEBFCDBF1E
:1009500013E0A0E0B1E0E6E6F3E302C005900D92FB
:10096000A035B107D9F724E0A0E5B3E001C01D929E
:10097000AD3AB207E1F70E94B30E0C94B1190C9492
:1009800000004F925F926F927F92AF92BF92CF9290
:10099000DF92EF92FF920F931F93CF93DF93CDB728
:1009A000DEB729013A01AB01BC01441555056605C6
:1009B000770514F4B301A201E416F506060717073C
:1009C00014F4B801A7019A01AB01241935094609AD
:1009D000570989899A89AB89BC89BC01CD016A19FB
:1009E0007B098C099D090E94B515A801970124195E
:1009F0003509460957090E94FB152A0D3B1D4C1D60
:100A00005D1DCA01B901DF91CF911F910F91FF9038
:100A1000EF90DF90CF90BF90AF907F906F905F90FE
:100A20004F900895FC01DB018617970751F09081E4
:100A30008C91982790838C9189278C93908198270B
:100A4000908308951F920F920FB60F921124DF9298
:100A5000EF92FF920F931F932F933F934F935F93C8
:100A60006F937F938F939F93AF93BF93CF93DF93B6
:100A7000EF93FF93E0915E03F0915F03D0906003EA
:100A8000E0906103F09062030091630310916403AE
:100A9000D0916503C0916603B0916703F3952D2D46
:100AA0003E2D4F2D502F612F7D2F8C2F9B2FA1E09E
:100AB0000E942B16E93EA3E0FA0758F0E85EF340E7
:100AC000D22EE32EF42E052F162FD72FC82FB92F95
:100AD000E6CFD0926003E0926103F092620300934C
:100AE000630310936403D0936503C0936603B093CC
:100AF0006703F0935F03E0935E032D2D3E2D4F2D92
:100B0000502F612F7D2F8C2F9B2F2E3F3F4F410564
:100B10005105610571058105910589F080F01092FC
:100B200060031092610310926203109263031092AB
:100B30006403109265031092660310926703FF919D
:100B4000EF91DF91CF91BF91AF919F918F917F9165
:100B50006F915F914F913F912F911F910F91FF9056
:100B6000EF90DF900F900FBE0F901F90189585B5F6
:100B7000826085BDEEE6F0E080818160808308952B
:100B8000F894209160033091610340916203509189
:100B90006303609164037091650380916603909193
:100BA0006703789408958EBD0DB407FEFDCF0895B8
:100BB00029985C980E94D3055C9A0895CF93C82F1A
:100BC000239A259A229A24982A9A2C9880E48CBDFC
:100BD0009CB590619CBD9CB59F7D9CBD9CB59C6067
:100BE0009CBD9CB591609CBD9CB59D7F9CBD9DB5F9
:100BF00091609DBD529A549A219A5A988FEC97E031
:100C00000197F1F700C000005A9A81E20E94D805CE
:100C10008C2F80610E94D80584E00E94D80580E274
:100C20000E94D8058CE0CF910C94D805299A5C9845
:100C30000E94D3055C9A0895CF93C82F87FDCFE714
:100C400081E20E94D8058C2F80680E94D80580E23E
:100C5000CF910C94D80561E0813009F060E0619596
:100C600070E048EF51E087E191E00C947519EF9244
:100C7000FF920F931F93CF93DF93E82E07E111E0CC
:100C8000F12C8F2D80640E94D80580E80E94D80541
:100C9000C0E0D0E0F801EC0FFD1F81E0E81203C0D6
:100CA0008081809501C080810E9416062196C435FE
:100CB000D10581F7F3940C5A1F4F86E0F812E1CF6B
:100CC00080E4DF91CF911F910F91FF90EF900C94F2
:100CD000D805843500F56033F0F4962F96959695F7
:100CE0009695E82FF0E0677084E5989FE00DF11D80
:100CF0001124E95EFE4F81E090E0062E01C0880FCE
:100D00000A94EAF7413019F49081982B03C080953A
:100D100090819823908308958435C8F46033B8F4A3
:100D2000962F969596959695E82FF0E0E95EFE4F02
:100D300084E5989FE00DF11D1124808190E067709B
:100D400002C0959587956A95E2F78071089580E0D5
:100D500008957F928F929F92AF92BF92CF92DF922F
:100D6000EF92FF920F931F93CF93DF93882E6A0128
:100D7000C22FD0E0279683E0D595C7958A95E1F7F5
:100D8000060F962EE12CF12C722E780C90E8A92EED
:100D9000B12C901641F1182D412F48191715F9F073
:100DA000842F869586958695F701E80FF11DEC0D49
:100DB000FD1DE491F0E04770C50102C0959587954F
:100DC0004A95E2F7E823F923EF2B11F041E001C047
:100DD00040E0692D812F0E9469061F5FDDCF93944B
:100DE000EC0EFD1ED6CFDF91CF911F910F91FF909A
:100DF000EF90DF90CF90BF90AF909F908F907F90BB
:100E000008959F92AF92BF92CF92DF92EF92FF929E
:100E10000F931F93CF93DF93A82E6A01C22FD0E0C8
:100E2000279633E0D595C7953A95E1F7060FB62E8C
:100E3000E12CF12C922E980EB01629F11A2D812F4B
:100E40008A191915E1F0982F969596959695F701C0
:100E5000E90FF11DEC0DFD1DE491F0E0877002C07B
:100E6000F595E7958A95E2F7E0FF02C041E001C001
:100E700040E06B2D812F0E9469061F5FE0CFB39485
:100E8000EC0EFD1ED9CFDF91CF911F910F91FF90F6
:100E9000EF90DF90CF90BF90AF909F900895CF924A
:100EA000DF92EF92FF920F931F93CF93DF9300D0C7
:100EB00000D0CDB7DEB789836A834B832C83D02ED5
:100EC00030E0261B310937FF03C0319521953109E8
:100ED0008B8190E04981841B910997FF03C0919514
:100EE00081959109EE24E3948217930714F0E12C85
:100EF0000EC0BE016E5F7F4FCE0101960E941205AB
:100F0000BE016C5F7F4FCE0103960E94120599814E
:100F10008B81891770F4BE016D5F7F4FCE01019602
:100F20000E941205BE016C5F7F4FCE0102960E94A7
:100F30001205FB808981F81A2C813A81822F90E07A
:100F4000831B910997FF03C0919581959109C82E44
:100F50001F2D1695321710F401E013C00FEF11C0CA
:100F60004D2DEE2099F0682F8A810E9469061C1988
:100F700017FF04C09A81900F9A831F0D99819F5F7C
:100F8000998389819B81981758F702C06A81EDCFB8
:100F90000F900F900F900F90DF91CF911F910F91B5
:100FA000FF90EF90DF90CF9008950F934150480F3E
:100FB000022F262F0E944F070F9108950F93415043
:100FC000460F022F242F482F0E944F070F9108959C
:100FD000FF920F931F93CF93DF93C82FD62FF42E3A
:100FE000122F202F0E94D5076FEF610F6D0F202F5A
:100FF0004F2D8C2F0E94D507202F412F6D2F8C2F26
:101000000E94DE078FEF8F0D202F412F6D2F8C0F49
:10101000DF91CF911F910F91FF900C94DE07EF921B
:10102000FF920F931F93CF93DF93F62EE22E182F8C
:10103000C42FD0E0C80FD11DE12FF0E0EC17FD0761
:1010400044F4202F4E2D6F2D812F0E94DE071F5F4D
:10105000F3CFDF91CF911F910F91FF90EF90089503
:101060008F929F92AF92BF92CF92DF92EF92FF92B8
:101070000F931F93CF93DF93182F062FF42EC22FB9
:10108000E42EE60E422F6E2D0E946906D02EDF1848
:101090004C2F6D2D812F0E946906CF2CC10E4C2F35
:1010A000602F8C2D0E946906B12EBF184C2F602F27
:1010B0008B2D0E946906D0E08F2D8D1BD817D0F59F
:1010C000DF5F9E2C9D1A8D2E810E4C2F692D882D51
:1010D0000E946906A12EAD1A4C2F692D8A2D0E94FF
:1010E00069069D2C9D0E4C2F692D882D0E94690646
:1010F0004C2F692D8A2D0E9469069D2E900E8C2CF6
:101100008D1A4C2F692D882D0E946906AB2CAD0ECF
:101110004C2F692D8A2D0E946906902E9D1A4C2F06
:10112000692D882D0E9469064C2F692D8A2D0E94F9
:101130006906C2CFDF91CF911F910F91FF90EF9081
:10114000DF90CF90BF90AF909F908F9008957F9247
:101150008F929F92AF92BF92CF92DF92EF92FF92C7
:101160000F931F93CF93DF93D82F162FF42EC0E049
:10117000822F8470A82EE42EE60ED42EDD0E822F50
:101180008270982EC62EC41A822F8870882EBD2E8B
:10119000B41A2170722E8F2D8C1BC81708F042C014
:1011A000CF5FAA2071F0402F6E2D6C1B8C2F8D0FFE
:1011B0000E946906402F6C2F610F8D2D8C1B0E94A1
:1011C0006906992071F0402F6C2D6C0F8C2F8D0FBC
:1011D0000E946906402F612F6C1B8D2D8C1B0E9475
:1011E0006906882071F0402F6C2F610F8B2D8C0FBA
:1011F0000E946906402F6E2D6C1B8D2F8C1B0E9448
:101200006906772041F2402F612F6C1B8B2D8C0FCC
:101210000E946906402F6C2D6C0F8D2F8C1B0E9435
:101220006906B9CFDF91CF911F910F91FF90EF9099
:10123000DF90CF90BF90AF909F908F907F90089558
:101240008F929F92AF92BF92CF92DF92EF92FF92D6
:101250000F931F93CF93DF93D82EC62E142F43E006
:10126000F42EF00ED12FDD0FD00FC0E0822F817051
:10127000B82EDF5F062F011BA12EAD0C2270922E1F
:101280008D2C811A812F8C1BC81770F5CF5FBB2066
:1012900099F08C2F880F4D2F481B2E2D602F6C0F2F
:1012A0008C2F8D0D0E94DE072E2D4F2D6C2D6C1B6B
:1012B0008A2D8C1B0E94DE07992099F08C2F880FB5
:1012C0004D2F481B2E2D602F6C0F8D2D8C1B0E94D7
:1012D000DE072E2D4F2D6C2D6C1B882D8C0F0E9440
:1012E000DE07F394F394CECFDF91CF911F910F914E
:1012F000FF90EF90DF90CF90BF90AF909F908F9036
:101300000895EF92FF920F931F93CF93DF93182FBF
:10131000F62EC42FE22ED42FDD0FDF5F641B4D2F7E
:101320000E94DE072E2D4D2F6F2D812F8C1B0E94CA
:10133000D50700E023E04C2F6F2D812F0E9420095C
:10134000DF91CF911F910F91FF90EF900895AF9291
:10135000BF92CF92DF92EF92FF920F931F93CF93A2
:10136000DF93D82E162FB42EC22EC02F0195000F5A
:10137000A02EA40EDC2FD80F2E2D4A2D8D2F0E94CB
:10138000D507FF24FA94FC0CF10E2E2D4A2D6F2D5B
:101390008D2F0E94D5070C0D1C0F2E2D402F612F75
:1013A0008D2D0E94DE07DA94DB0C2E2D402F612F4D
:1013B0008D2D0E94DE070E2D21E04C2F612F8D2FE9
:1013C0000E94A708DC1A22E04C2F612F8D2D0E946D
:1013D000A708FC1A24E04C2F6F2D8D2D0E94A70822
:1013E00028E04C2F6F2D8D2F0E94A708DF91CF9101
:1013F0001F910F91FF90EF90DF90CF90BF90AF9033
:101400000895AF92BF92CF92DF92EF92FF920F9327
:101410001F93CF93DF93B82EA62EC42ED22FC02FAA
:10142000102F1195110FD02ED80E412F4C0D0E2DCF
:101430008D2D0E940F08D150D10F1C2F1A0D8FEF48
:101440008B0D8C0D0D2F21E04C2F612F8C1B0E94DA
:10145000200922E04C2F612F8D2D0E942009DF9161
:10146000CF911F910F91FF90EF90DF90CF90BF90A1
:10147000AF900895CF92DF92EF92FF920F931F9358
:10148000CF93DF93D82F162FF42ED22EC02F0C2DF2
:101490000E944F072E2D4C2F6D2D8F2D0E944F0730
:1014A000212F4D2F6E2D8C2F0E944F07DF91CF9152
:1014B0001F910F91FF90EF90DF90CF9008952F92A2
:1014C0003F924F925F926F927F928F929F92AF92D4
:1014D000BF92CF92DF92EF92FF920F931F93CF9321
:1014E000DF93CDB7DEB72A970FB6F894DEBF0FBEF5
:1014F000CDBF8B836C834D832E830F83E8862617A5
:1015000070F4BE016A5F7F4FCE0104960E941205FF
:10151000BE016B5F7F4FCE0103960E9412059E8134
:101520008885891770F4BE016A5F7F4FCE010896E7
:101530000E941205BE016B5F7F4FCE0107960E948D
:1015400012059C818E81891770F4BE016A5F7F4FFE
:10155000CE0104960E941205BE016B5F7F4FCE0143
:1015600003960E941205DC8028859B818D812F8047
:10157000D2121BC099839A83891710F48A8303C0FF
:10158000981708F489838A81281610F42A8204C0E7
:101590008981821508F429828A8149814F5F481B1D
:1015A0002C2D6D2D0E94D50796C0482E491A3E80DD
:1015B000832C8D18E22CE91A422F4D194987281ADD
:1015C000522F53195A8732123A94A12CB12C00E0B1
:1015D00010E0FF24E7FCF094992487FC909489851F
:1015E000682E772467FC7094552447FC50943D1472
:1015F00028F14B81C801B4010E94C515242F260F84
:101600002A83C501B3010E94C515460F4983040D05
:10161000151DAE0CBF1C421738F4BE016F5F7F4F23
:10162000CE0102960E9412058A8149814F5F481BB4
:101630002C2D6D2D0E94D507D394D9CF822C9924BF
:1016400087FC90948D2D90E02E81AC01421B5109B6
:10165000849E8001859E100D949E100D11242C8176
:10166000821B9109E89E5001E99EB00CF89EB00CD7
:1016700011245A85452E552447FC50948985682E9F
:10168000772467FC709488858D1528F1C801B20114
:101690000E94C5152D81260F2A83C501B3010E9422
:1016A000C5158B81860F8983080D191DAE0CBF1CD3
:1016B000821738F4BE016F5F7F4FCE0102960E9401
:1016C00012058A8149814F5F481B2C2D6D2D0E9488
:1016D000D507D394D8CF2A960FB6F894DEBF0FBEA5
:1016E000CDBFDF91CF911F910F91FF90EF90DF90D1
:1016F000CF90BF90AF909F908F907F906F905F90B2
:101700004F903F902F9008955F926F927F928F92AB
:101710009F92AF92BF92CF92DF92EF92FF920F9380
:101720001F93CF93DF93762EB42E122F602E93E566
:10173000961708F440C09FE2941708F43CC095E067
:10174000899F60011124A62EC0E0D0E0C6018C5B09
:101750009B4F6C01C53029F0F601EC0FFD1F849002
:1017600001C0812C9B2CF12C5C2E570C80FE06C0F6
:10177000113011F4462D07C0062D0CC0E61481F07F
:10178000113039F44E2D6F2D6B0D852D0E94690699
:1017900007C00E2D212F412F692D8A2D0E940F0881
:1017A0008694F394910E88E0F812E0CF2196A10E72
:1017B000C630D10579F6DF91CF911F910F91FF903F
:1017C000EF90DF90CF90BF90AF909F908F907F90E1
:1017D0006F905F9008958F929F92AF92BF92CF9239
:1017E000DF92EF92FF920F931F93CF93DF93B62E6A
:1017F000A42ED22E902E8E2C122F110F120F110FFD
:10180000EC01C12CF12C89918823B1F08A3011F0C0
:101810008D3011F4C394F6CF6B2DF19E600D112421
:10182000E82C092D2D2D4A2D98E0C99E400D11243C
:101830000E94840BF394E7CFDF91CF911F910F911A
:10184000FF90EF90DF90CF90BF90AF909F908F90E0
:101850000895EF92FF920F931F93CF93DF93CDB72D
:10186000DEB728970FB6F894DEBF0FBECDBF162F98
:10187000F42E4AE0BE016F5F7F4F28870E947C19DB
:1018800028854F2D612FCE0101960E94EB0B2896E3
:101890000FB6F894DEBF0FBECDBFDF91CF911F9181
:1018A0000F91FF90EF900895AF92BF92CF92DF9289
:1018B000EF92FF920F931F93CF93DF93EC01F62EDD
:1018C000D42EC22E102FAE2C8FE4821710F0B0E56C
:1018D000CB2E1A3108F41AE1E12C05E0212F4C2D12
:1018E0006D2D8F2D0E94010AEE24E394212F4C2DA3
:1018F0006D2D8F2D0E94A709E12FF0E07297F595CD
:10190000E7956D2D6E0F02E126E14EE054E082E096
:101910008F0D0E94A906E12C01E021E043E04D0D6E
:1019200069E16F0DCE010E94EB0BBB24B394A110B3
:10193000B12C1D0DC2EFC10FEC2DF0E0EC54F109FC
:10194000F595E795DF2DDE0F7AE1F72EFD0E0B2DD5
:101950002BE045E16C2F8F2D0E940F08CC24C394FF
:10196000A11001C0C12C54EFD52ED10E6CE16D0F2A
:10197000EB2C0C2D21E04D2D87E293E00E94EB0B28
:1019800001E02BE045E16C2F8F2D0E94E80713E367
:101990001D0F0C2D2BE045E16C2F812F0E940F08AD
:1019A00068E36D0FEC2C0B2D21E04D2D8BE293E0C5
:1019B0000E94EB0B01E02BE045E16C2F812F0E9490
:1019C000E807DF91CF911F910F91FF90EF90DF908B
:1019D000CF90BF90AF9008959B01AC015098519A61
:1019E00084E0220F331F441F551F8A95D1F760E012
:1019F00074E284EF90E00E94FB1521503109410907
:101A00005109BB2757FDBA95A52F942F832F80939B
:101A1000C5002093C400E2ECF0E080818068808300
:101A200080818B7F808380818660808380818F7DB1
:101A3000808380818F7E80838081877F808388E11F
:101A40008093C10008958091C00087FFFCCF8091F2
:101A5000C60008959091C00095FFFCCF8093C6000A
:101A60000895CF93DF93EC018991882319F00E94A8
:101A70002A0DFACFDF91CF910895CF93DF93CDB7A1
:101A8000DEB727970FB6F894DEBF0FBECDBF4AE092
:101A9000BE016F5F7F4F0E947C19CE0101960E94AC
:101AA000310D27960FB6F894DEBF0FBECDBFDF9184
:101AB000CF9108954F925F926F927F928F929F92F3
:101AC000AF92BF92CF92DF92EF92FF92CF93DF93CC
:101AD000EC014A015B011092B0001092B1008091BC
:101AE000B00082608093B0008091B10081608093EB
:101AF000B1006E01E12CF12C60E072E18AE790E028
:101B0000A70196010E94FB1529013A0121503109D4
:101B1000410951092F3F31054105510509F008F4EC
:101B20006BC060E472E48FE090E0A70196010E9430
:101B3000FB1521503109410951092F3F310541055C
:101B4000510509F008F45AC060E970ED83E090E0B7
:101B5000A70196010E94FB15215031094109510945
:101B60002F3F31054105510509F008F449C068E4EB
:101B700078EE81E090E0A70196010E94FB152150CC
:101B80003109410951092F3F310541055105D1F175
:101B9000C8F164E274EF80E090E0A70196010E9432
:101BA000FB1521503109410951092F3F31054105EC
:101BB000510551F148F162E17AE780E090E0A70138
:101BC00096010E94FB1521503109410951092F3F0F
:101BD000310541055105D1F0C8F0A30192016AE039
:101BE00055954795379527956A95D1F72150310935
:101BF0004109510987E00BC081E009C082E007C0BC
:101C000083E005C084E003C085E001C086E08093E6
:101C1000B1002093B30081149104A104B104B1F088
:101C2000DE01AA0FBB1FA50194010E94201628EE19
:101C300033E040E050E00E94D9152093A90430938E
:101C4000AA044093AB045093AC040BC08FEF9FEFFA
:101C5000DC018093A9049093AA04A093AB04B093F1
:101C6000AC0482E080937000DF91CF91FF90EF9001
:101C7000DF90CF90BF90AF909F908F907F906F90AC
:101C80005F904F9008951092A9041092AA041092A8
:101C9000AB041092AC0408951F920F920FB60F92EE
:101CA00011248F939F93AF93BF938091A904909138
:101CB000AA04A091AB04B091AC04892B8A2B8B2B86
:101CC00029F18BB198E089278BB98091A904909173
:101CD000AA04A091AB04B091AC04181619061A0618
:101CE0001B062CF58091A9049091AA04A091AB0445
:101CF000B091AC040197A109B1098093A904909314
:101D0000AA04A093AB04B093AC0411C080917000FE
:101D10008D7F8093700081E08093B0008091B1004E
:101D2000887F84608093B1001092B3005B98BF916C
:101D3000AF919F918F910F900FBE0F901F901895AC
:101D4000E0E1F3E090E0DF0111972C919F5F8217B3
:101D50002CF02081281714F0892F089532969C309A
:101D600091F780E00895CF93DF93CDB7DEB7619709
:101D70000FB6F894DEBF0FBECDBF0E94B7057894B2
:101D800084E00E94DE0587E30E941C0680E00E943A
:101D90002B0600E324E54EEF51E060E080E00E9476
:101DA000A906569A84B5806884BD84B5836084BDD5
:101DB00085B5826085BD55983D9820985798539A6F
:101DC0003998389880917A00806880937A00809161
:101DD0007A00836080937A0080917C008F77809373
:101DE0007C0080917C00806480937C0060E875E2D8
:101DF00080E090E00E94EC0C609107017091080176
:101E0000882777FD8095982F1F921F921F922FE7AA
:101E10002F93A12CB12C650114E6E12EF12C00E0EA
:101E200010E020E030E0A9010E94C1040F900F9063
:101E30000F900F90862F0E941C06609109017091EF
:101E40000A01882777FD8095982F1F921F921F9275
:101E50002FEF2F9320E030E0A9010E94C1040F90E2
:101E60000F900F900F9067BD4D9B3DC00E94C00525
:101E70002090A7043090A8045101C12CD12CE12C52
:101E8000F12C00E010E00E943716243F314041055C
:101E90005105610571058105910549F140F1809178
:101EA000030190910401019771F48091A504909130
:101EB000A604892B41F444E150E060E070E082ED3B
:101EC00091E00E945A0D0E94C0052093A704309310
:101ED000A8048091A5049091A60401969093A6046D
:101EE0008093A50404C01092A6041092A504359B0B
:101EF0003DC00E94C0052090A3043090A40451016D
:101F0000C12CD12CE12CF12C00E010E00E943716FE
:101F1000243F314041055105610571058105910559
:101F200049F140F18091030190910401019771F40E
:101F30008091A1049091A204892B41F444E150E0E6
:101F400060E070E082ED91E00E945A0D0E94C005B1
:101F50002093A3043093A4048091A1049091A2043F
:101F600001969093A2048093A10404C01092A2044D
:101F70001092A104189B3DC00E94C00520909F04B0
:101F80003090A0045101C12CD12CE12CF12C00E0A7
:101F900010E00E943716243F31404105510561058C
:101FA00071058105910549F140F1809103019091FE
:101FB0000401019771F480919D0490919E04892BF6
:101FC00041F444E150E060E070E082ED91E00E9475
:101FD0005A0D0E94C00520939F043093A004809165
:101FE0009D0490919E04019690939E0480939D047D
:101FF00004C010929E0410929D044F9B3DC00E940D
:10200000C00520909B0430909C045101C12CD12C20
:10201000E12CF12C00E010E00E943716243F314003
:1020200041055105610571058105910549F140F1B1
:102030008091030190910401019771F480919904BA
:1020400090919A04892B41F444E150E060E070E003
:1020500082ED91E00E945A0D0E94C00520939B04DE
:1020600030939C048091990490919A0401969093E6
:102070009A048093990404C010929A0410929904CF
:1020800080917C00877F80937C0080917C008B7F97
:1020900080937C0080917C008D7F80937C00809178
:1020A0007C00816080937C0080917A0080648093C2
:1020B0007A0080917A0084FFFCCF2091980480916F
:1020C00078003091790090E0932B40910D01509170
:1020D0000E01840F951F925044E0249F900111241B
:1020E000F901E459FC4F8130AEEF9A0714F481E016
:1020F0009EEF91838083F901E459FC4F80819181A7
:102100008130924024F020E032E0318320838091BE
:102110007C00877F80937C0080917C008B7F809304
:102120007C0080917C008D7F80937C0080917C007E
:102130008E7F80937C0080917A00806480937A0007
:1021400080917A0084FFFCCF60919804462F50E084
:10215000209178008091790030E0382B325037FFA1
:1021600003C031952195310980910F0190911001A3
:10217000820F931F8A01000F111F000F111FF8011A
:10218000E459FC4F97FD03C09383828302C01382FE
:102190001282F801E459FC4F828193818130924090
:1021A00024F080E092E09383828390916B0380918E
:1021B0000001913009F041C48F3F09F03EC4809185
:1021C000A1049091A204892BB9F080910101909112
:1021D00002018530910534F40196909302018093B9
:1021E000010106C0A1E0B0E0B0930201A09301019B
:1021F0001092A2041092A10480919D0490919E04DB
:10220000892BA1F0809115019091160183369105DB
:102210004CF40196909316018093150180910B0167
:102220000E942B0610929E0410929D0480919904A6
:1022300090919A04892BA1F080911501909116013B
:10224000823091054CF0019790931601809315010F
:1022500080910B010E942B0610929A04109299040F
:1022600080911101909112010197D9F4F801E4597C
:10227000FC4F808191810E943D0D8EE293E00E948F
:10228000310DE0919804B4E0EB9FF0011124E45982
:10229000FC4F828193810E943D0D80E393E00E9478
:1022A000310D90919804E4E09E9F8001112404591F
:1022B0001C4FD8016D917C91882777FD8095982FD0
:1022C0000E94C3174B015C01F8016281738188276A
:1022D00077FD8095982F0E94C3172B013C01A50123
:1022E0009401C501B4010E947B184B015C01A3015C
:1022F0009201C301B2010E947B189B01AC01C50190
:10230000B4010E9464160E9402190E9490176D8306
:102310007E838F8398872D813E813A872987C901E3
:102320000E943D0D80E393E00E94310D01E029E021
:102330004DE060E080E00E940F08809101019091E3
:10234000020183309105D1F05CF4029749F5EE2447
:10235000E39400E021E041E061E083E393E028C002
:1023600084309105A1F00597D9F4EE24E39400E0C0
:1023700021E041E061E08CE393E01AC0EE24E394B5
:1023800000E021E041E061E086E393E011C0EE244B
:10239000E39400E021E041E061E089E393E008C0DC
:1023A000EE24E39400E021E041E061E08FE393E07C
:1023B0000E94EB0B01E029E043E160E080E40E9431
:1023C0000F088091150190911601EE24E39400E02E
:1023D00021E041E061E48A3091055CF480E090E026
:1023E0000E94290C21E041E067E480911501909161
:1023F00016010E94290CEE24E39400E021E041E064
:102400006DE482E493E00E94EB0B21E040E26FE098
:1024100089E20E94DE0721E043E56FE280E00E944E
:10242000D507209115013091160180E092E0B901A5
:102430000E94C5152B01662457FC6094762C81E020
:102440009EEFB9010E94C515CB01AA2797FDA09563
:10245000BA2F89839A83AB83BC838090980494E0DD
:10246000899E10011124D101A459BC4F1D016D9109
:102470007C91882777FD8095982F1F921F921F923D
:10248000B2E5BF93A12CB12C6501830172012981B2
:102490003A814B815C810E94C1040F900F900F9094
:1024A0000F90962EF10162817381882777FD8095C8
:1024B000982F1F921F921F922FE02F932FE2A22E90
:1024C000B12CC12CD12C20E030E0A9010E94C10424
:1024D0000F900F900F900F906F8780911301909144
:1024E0001401019709F0FDC0882019F08FEF880DC5
:1024F00001C08AE4F4E08F9F100111249101245956
:102500003C4F1901D9016D917C91882777FD809509
:10251000982F1F921F921F92B2E5BF93A12CB12C4E
:1025200065018301720129813A814B815C810E949E
:10253000C1040F900F900F900F906983F101628199
:102540007381882777FD8095982F1F921F921F9285
:102550002FE02F93BFE2AB2EB12CC12CD12C20E069
:1025600030E0A9010E94C1040F900F900F900F90CE
:1025700001E02F85492D89810E944F07F9E4F81564
:1025800020F022242394280C01C0212C2091150135
:102590003091160180E092E0B9010E94C5152B012F
:1025A000662457FC6094762C81E09EEFB9010E946E
:1025B000C515CB01AA2797FDA095BA2F89839A83C9
:1025C000AB83BC83E4E02E9ED0011124A459BC4F00
:1025D000B98BA88B6D917C91882777FD8095982F7A
:1025E0001F921F921F92F2E5FF93A12CB12C65015F
:1025F0008301720129813A814B815C810E94C1046F
:102600000F900F900F900F90862EA889B98912967F
:102610006D917C911397882777FD8095982F1F9255
:102620001F921F922FE02F93AFE2AA2EB12CC12C44
:10263000D12C20E030E0A9010E94C1040F900F903E
:102640000F900F90362EBAE42B1611F0239401C090
:10265000212C24E0229EF0011124E459FC4FF98B37
:10266000E88B60817181882777FD8095982F1F9274
:102670001F921F9232E53F93A12CB12C650183017B
:10268000720129813A814B815C810E94C1040F90C3
:102690000F900F900F90962EA889B98912966D9180
:1026A0007C911397882777FD8095982F1F921F9212
:1026B0001F922FE02F93FFE2AF2EB12CC12CD12C13
:1026C00020E030E0A9010E94C1040F900F900F900C
:1026D0000F90262F00E0492D632D882D0E944F0773
:1026E00061C041E06F85892D0E946906B9E4B81583
:1026F00010F0839401C0812C2091150130911601B6
:1027000080E092E0B9010E94C5152B01662457FCB8
:102710006094762C81E09EEFB9010E94C5159B0163
:10272000442737FD4095542FE4E08E9E100111247C
:10273000C10184599C4F1C01DC016D917C9188275B
:1027400077FD8095982F1F921F921F92B2E5BF933D
:10275000A12CB12C6501830172010E94C1040F906C
:102760000F900F900F90962EF10162817381882750
:1027700077FD8095982F1F921F921F922FE02F9325
:10278000EFE2AE2EB12CC12CD12C20E030E0A9011B
:102790000E94C1040F900F900F900F9040E0892D80
:1027A0000E946906EEE6F3E080E090E0208131814E
:1027B000820F931F349624E0EA39F207B9F786397D
:1027C000910508F448C040919804442309F443C09B
:1027D0008091690390916A03A985BA858A179B073E
:1027E0000CF03FC0ED81FE81F0936A03E093690332
:1027F000F4E04F9F8001112404591C4FD801129618
:102800006D917C911397882777FD8095982F0E9472
:10281000C3179B01AC01F80160817181882777FDA6
:102820008095982F2B873C874D875E870E94C31722
:102830002B853C854D855E850E94D71620EE3EE2B5
:1028400045E652E40E947B180E94DE180E94901711
:102850006093680306C01092680310926A03109296
:10286000690300E02EE042E260E086E10E940F088A
:1028700010916803173F04F189E0810F8930F0F06F
:102880008FEF810F893058F4E12C01E022E040E025
:102890006EE184E493E00E94EB0B6AE212C01A300E
:1028A0007CF0E12C01E022E040E066E184E493E08A
:1028B0000E94EB0B62E205C066E103C06EE101C05D
:1028C00065E2E12C01E022E040E0812F992787FDBD
:1028D00090950E94290CA0900501B09006011A1451
:1028E0001B040CF017C1E09068038E2D0E94A00E0F
:1028F000EE2009F40FC1882309F40CC120910101D5
:102900003091020190E02330310599F03CF42230FF
:102910003105B9F4FC01EB53FF4F16C024303105EB
:1029200061F02530310569F4FC01E15BFC4FE08189
:102930000CC0FC01E754FF4F07C0FC01E355FF4FFB
:1029400003C0FC01EF52FF4FE491E13009F0E2C017
:10295000E091980424E0E29FF0011124E459FC4F37
:1029600022813381223031050CF4D4C04091A90476
:102970005091AA046091AB047091AC04452B462B96
:10298000472B09F0C7C0F5013197EC30F10508F08D
:1029900046C0EC5CFF4F0C941A16FC01EE0FFF1FB3
:1029A000EC51FE4F41C0FC01EE0FFF1FE453FE4F00
:1029B0003BC0FC01EE0FFF1FE456FE4F35C0FC018B
:1029C000EE0FFF1FEC57FE4F2FC0FC01EE0FFF1F55
:1029D000E459FE4F29C0FC01EE0FFF1FEC5AFE4FD9
:1029E00023C0FC01EE0FFF1FE45CFE4F1DC0FC0185
:1029F000EE0FFF1FEC5DFE4F17C0FC01EE0FFF1F37
:102A0000E45FFE4F11C0FC01EE0FFF1FEC50FF4FC3
:102A10000BC0FC01EE0FFF1FE452FF4F05C0FC018D
:102A2000EE0FFF1FEC54FE4F849190E046E950E01A
:102A300060E070E00E945A0D6DC0611102C03599CE
:102A400003C08F3F09F452C08F3F79F41092000108
:102A500080910B010E942B06E12C08E224E544E062
:102A600060E086E493E00E94540C8091A50490916C
:102A7000A604892B91F01092A6041092A5043FE7BA
:102A800048E381E0315040408040E1F700C0000061
:102A9000E0915C03F0915D03099580919D04909114
:102AA0009E04892B31F48091990490919A04892B8A
:102AB00089F110929E0410929D0410929A04109233
:102AC0009904EE24E394809100018111E12CE092BD
:102AD000000180910B010E942B0608E224E544E0EE
:102AE00060E086E493E00E94540C14C04F5F5F4F97
:102AF000AFE4A49FC001A59F900D11246BE470E08A
:102B00000E94C51541E0460F01E022E06DE282E03F
:102B10000E940F08809198048A3420F48F5F80937C
:102B200098041EC01092980480916B03811118C004
:102B3000809100018F3FA1F480910B010E94370624
:102B4000BFEFE9E6F8E1B150E040F040E1F700C046
:102B5000000080910B010E942B0621E020936B0363
:102B600080910B010E9437067FC9DB018F939F93F1
:102B70000E942016BF91AF91A29F800D911DA39F2F
:102B8000900DB29F900D1124089597FB072E16F417
:102B9000009407D077FD09D00E94401607FC05D0AD
:102BA0003EF4909581959F4F0895709561957F4F64
:102BB0000895A1E21A2EAA1BBB1BFD010DC0AA1F7E
:102BC000BB1FEE1FFF1FA217B307E407F50720F096
:102BD000A21BB30BE40BF50B661F771F881F991F11
:102BE0001A9469F760957095809590959B01AC015A
:102BF000BD01CF010895052E97FB1EF400940E949D
:102C0000121657FD07D00E94D91507FC03D04EF4C9
:102C10000C94121650954095309521953F4F4F4F8B
:102C20005F4F089590958095709561957F4F8F4F78
:102C30009F4F0895EE0FFF1F0590F491E02D09942A
:102C40000E945416A59F900DB49F900DA49F800DD7
:102C5000911D112408950024A7FD00942A0F301D12
:102C6000401D501D601D701D801D901D08952A1966
:102C70003B094C095D096E097F09800B910B089592
:102C8000AA1BBB1B51E107C0AA1FBB1FA617B70792
:102C900010F0A61BB70B881F991F5A95A9F78095AE
:102CA0009095BC01CD010895A29FB001B39FC001D2
:102CB000A39F700D811D1124911DB29F700D811D68
:102CC0001124911D08955058BB27AA270ED0D2C1B8
:102CD000C3D130F0C8D120F031F49F3F11F41EF47D
:102CE00093C10EF4E095E7FB89C1E92FD4D180F3BD
:102CF000BA17620773078407950718F071F49EF5F9
:102D0000ECC10EF4E0950B2EBA2FA02D0B01B901EA
:102D100090010C01CA01A0011124FF27591B99F051
:102D2000593F50F4503E68F11A16F040A22F232F5D
:102D3000342F4427585FF3CF469537952795A795AD
:102D4000F0405395C9F77EF41F16BA0B620B730B54
:102D5000840BBAF09150A1F0FF0FBB1F661F771FC5
:102D6000881FC2F70EC0BA0F621F731F841F48F47A
:102D7000879577956795B795F7959E3F08F0B3CF00
:102D80009395880F08F09927EE0F979587950895EA
:102D900063D158F080E891E009F49EEF64D128F007
:102DA00040E851E059F45EEF09C02EC196C1E92F09
:102DB000E07871D168F3092E052AC1F32617370789
:102DC0004807590738F00E2E07F8E02569F0E0258E
:102DD000E0640AC0EF6307F8009407FADB01B90169
:102DE0009D01DC01CA01AD01EF9341D043D10AD06E
:102DF0005F91552331F02BED3FE049E450FD49EC64
:102E000063CF0895DF93DD27B92FBF7740E85FE3F5
:102E10001616170648075B0710F4D92F65D19F9344
:102E20008F937F936F932CD2E0E8F0E0F0D022D123
:102E30002F913F914F915F916AD1DD2349F09058D6
:102E4000A2EA2AED3FE049EC5FE3D0785D274DDF51
:102E5000DF9110C108D140F0FFD030F021F45F3F86
:102E600019F0CCC051113AC1CFC015D198F39923B4
:102E7000C9F35523B1F3951B550BBB27AA2762173E
:102E80007307840738F09F5F5F4F220F331F441F83
:102E9000AA1FA9F333D00E2E3AF0E0E830D09150BB
:102EA0005040E695001CCAF729D0FE2F27D0660FA8
:102EB000771F881FBB1F261737074807AB07B0E8E7
:102EC00009F0BB0B802DBF01FF2793585F4F2AF0FD
:102ED0009E3F510568F092C001C15F3FECF3983E00
:102EE000DCF3869577956795B795F7959F5FC9F75A
:102EF000880F911D9695879597F90895E1E0660FE3
:102F0000771F881FBB1F621773078407BA0720F05B
:102F1000621B730B840BBA0BEE1F88F7E0950895C4
:102F200004D06894B111DAC00895BDD088F09F57DD
:102F300090F0B92F9927B751A0F0D1F0660F771F05
:102F4000881F991F1AF0BA95C9F712C0B13081F0E5
:102F5000C4D0B1E00895C1C0672F782F8827B85F2B
:102F600039F0B93FCCF3869577956795B395D9F746
:102F70003EF490958095709561957F4F8F4F9F4F50
:102F80000895E89409C097FB3EF49095809570955C
:102F900061957F4F8F4F9F4F9923A9F0F92F96E9A5
:102FA000BB279395F695879577956795B795F1111A
:102FB000F8CFFAF4BB0F11F460FF1BC06F5F7F4FB7
:102FC0008F4F9F4F16C0882311F096E911C07723C9
:102FD00021F09EE8872F762F05C0662371F096E8D2
:102FE000862F70E060E02AF09A95660F771F881FA1
:102FF000DAF7880F9695879597F9089597F99F675F
:1030000080E870E060E008959FEF80EC0895DF9322
:10301000CF931F930F93FF92EF92DF927B018C016E
:10302000689405C0DA2EEF0172D0FE01E894A591F4
:103030002591359145915591AEF3EF0156DEFE0194
:103040009701A801DA9479F7DF90EF90FF900F9144
:103050001F91CF91DF91089500240A941616170648
:1030600018060906089500240A9412161306140679
:1030700005060895092E0394000C11F4882352F0DC
:10308000BB0F40F4BF2B11F460FF04C06F5F7F4F94
:103090008F4F9F4F089557FD9058440F551F59F07B
:1030A0005F3F71F04795880F97FB991F61F09F3F35
:1030B00079F087950895121613061406551FF2CF5E
:1030C0004695F1DF08C0161617061806991FF1CFAE
:1030D00086957105610508940895E894BB276627D5
:1030E0007727CB0197F908959B01AC0160E070E070
:1030F00080E89FE3C8C00BD0BDCFAEDF28F0B3DFC0
:1031000018F0952309F07ACF7FCF1124E7CFC3DFE2
:10311000A0F3959FD1F3950F50E0551F629FF001EA
:10312000729FBB27F00DB11D639FAA27F00DB11D43
:10313000AA1F649F6627B00DA11D661F829F2227CC
:10314000B00DA11D621F739FB00DA11D621F839F53
:10315000A00D611D221F749F3327A00D611D231F29
:10316000849F600D211D822F762F6A2F11249F5777
:1031700050408AF0E1F088234AF0EE0FFF1FBB1F9A
:10318000661F771F881F91505040A9F79E3F510539
:1031900070F034CFA3CF5F3FECF3983EDCF386951D
:1031A00077956795B795F795E7959F5FC1F7FE2BE4
:1031B000880F911D9695879597F9089574DFE0F033
:1031C0009E37D8F09639B8F49E3848F4672F782F98
:1031D0008827985FF9CF8695779567959395953968
:1031E000D0F3B62FB1706B0F711D811D20F4879540
:1031F00077956795939549C063C070CF11F40EF42D
:1032000003CF5EC050DFD0F39923D9F3CEF39F579D
:10321000550B87FF63D00024A0E640EA9001805858
:103220005695979528F4805C660F771F881F20F0CD
:1032300026173707480730F4621B730B840B2029CD
:1032400031294A2BA69517940794202531254A2722
:1032500058F7660F771F881F20F026173707480793
:1032600030F4620B730B840B200D311D411DA095B2
:1032700081F7B901842F9158880F96958795089505
:103280009B01AC0138CFF1DDF5CE882371F47723B3
:1032900021F09850872B762F07C0662311F49927C9
:1032A0000DC09051862B70E060E02AF09A95660F71
:1032B000771F881FDAF7880F9695879597F90895F5
:1032C0009F3F31F0915020F4879577956795B7959A
:1032D000880F911D9695879597F9089591505040C4
:1032E000660F771F881FD2F70895DC0101C06D9328
:1032F00041505040E0F70895BB274A3031F49923FC
:1033000022F4BDE2909581959F4F0C948819BB27BC
:10331000FB015527AA27880F991FAA1FA41710F091
:10332000A41B83955051B9F7A05DAA3308F0A95D9D
:10333000A193009779F7B111B1931192CB010C943D
:10334000A119DC01FC01672F71917723E1F7329716
:1033500004C07C916D9370836291AE17BF07C8F370
:063360000895F894FFCF70
:10336600FF050001000300280000000000DBFFD875
:10337600FF00000100010000000000000000000046
:103386000000000000000000000000000000000037
:1033960000000000000000000000000000C0E0F097
:1033A600F8FCFCFEFFFCE00000000000000000004E
:1033B6000000000000000000000000000000000007
:1033C60000000000000000000000000000000000F7
:1033D600000000000000000000000000F8F8F8F807
:1033E600F8F8F8F8F8F8F8F8F0F0E0E0C080C0FC7B
:1033F600FFFFFFFF7F3F7FFFFFFFFFFF0000000093
:1034060000000000000000000000000000000000B6
:1034160000000000000000000000000000000000A6
:103426000000000000000000000000000000000096
:10343600000F1F3F7FFFFFFFFFFFFFFFFFE7C7C72D
:10344600878F9F9FFFFFFFC1C0E0FCFFFFFFFFFFCD
:10345600FCFCFCFCFEFEFEFCFCF8F8F0E0C0C00044
:103466000000000000000000000000000000000056
:103476000000000000000000000000000000000046
:10348600000000000000000080C0E0F1FBFFFFFF2D
:10349600FFFF7F1F0F0F87E7FFFFFF1F1F3FF9F893
:1034A600F8F8F8F8F8FDFFFFFFFFFFFFFFFFFF7FCB
:1034B6003F0F0701000000000000000000000000B0
:1034C60000000000000000000000000000000000F6
:1034D60000000000000000000000F0FEFFFFFFFFFC
:1034E600FFFFFFFFFFFFFE7E3F3F0F1FFFFFFFFCBB
:1034F600F0E0F1FFFFFFFFFFFCF001010101010118
:1035060001010000000000000000000000000000B3
:1035160000000000000000000000000000000000A5
:10352600000000000000000000000000000003038F
:10353600030303030303010101010000000000006F
:1035460000030F1F3F7F7FFFFFFFFF7F7F1F0300EB
:103556000000000000000000000000000000000065
:10356600000000000000000000000000000000A6AF
:10357600B0B1CECF00010A0B14151E1F2829323315
:103586003C3D464750515ACDE5F200C4E0003A00B2
:103596000D0A00D3CA00D0C500CCCE00CFCE00C2E3
:1035A600CC00F5002B000A2020D1E1F0EEF13F001F
:00000001FF
